{
  "abi": [
    {
      "inputs": [],
      "stateMutability": "nonpayable",
      "type": "constructor"
    },
    {
      "inputs": [],
      "name": "retrieveNumber",
      "outputs": [
        {
          "internalType": "uint256",
          "name": "",
          "type": "uint256"
        }
      ],
      "stateMutability": "view",
      "type": "function"
    },
    {
      "inputs": [
        {
          "internalType": "uint256",
          "name": "number",
          "type": "uint256"
        }
      ],
      "name": "storeNumber",
      "outputs": [],
      "stateMutability": "nonpayable",
      "type": "function"
    }
  ],
  "bytecode": {
    "object": "0x608060405234801561001057600080fd5b5060b68061001f6000396000f3fe6080604052348015600f57600080fd5b506004361060325760003560e01c8063a009491b146037578063b633941814604c575b600080fd5b60005460405190815260200160405180910390f35b605b60573660046068565b605d565b005b606581600055565b50565b600060208284031215607957600080fd5b503591905056fea26469706673582212208b025f4f848ebfebeae581785257173673f69e4670341594c556df455042b4cd64736f6c634300080d0033",
    "linkReferences": {}
  }
}