{
  "abi": [
    {
      "inputs": [
        {
          "internalType": "bytes32[]",
          "name": "proposalNames",
          "type": "bytes32[]"
        }
      ],
      "stateMutability": "nonpayable",
      "type": "constructor"
    },
    {
      "inputs": [],
      "name": "VotingPeriodExpired",
      "type": "error"
    },
    {
      "inputs": [],
      "name": "chairperson",
      "outputs": [
        {
          "internalType": "address",
          "name": "",
          "type": "address"
        }
      ],
      "stateMutability": "view",
      "type": "function"
    },
    {
      "inputs": [
        {
          "internalType": "address",
          "name": "to",
          "type": "address"
        }
      ],
      "name": "delegate",
      "outputs": [],
      "stateMutability": "nonpayable",
      "type": "function"
    },
    {
      "inputs": [
        {
          "internalType": "address",
          "name": "voter",
          "type": "address"
        }
      ],
      "name": "giveRightToVote",
      "outputs": [],
      "stateMutability": "nonpayable",
      "type": "function"
    },
    {
      "inputs": [
        {
          "internalType": "uint256",
          "name": "",
          "type": "uint256"
        }
      ],
      "name": "proposals",
      "outputs": [
        {
          "internalType": "bytes32",
          "name": "name",
          "type": "bytes32"
        },
        {
          "internalType": "uint256",
          "name": "voteCount",
          "type": "uint256"
        }
      ],
      "stateMutability": "view",
      "type": "function"
    },
    {
      "inputs": [],
      "name": "startTime",
      "outputs": [
        {
          "internalType": "uint256",
          "name": "",
          "type": "uint256"
        }
      ],
      "stateMutability": "view",
      "type": "function"
    },
    {
      "inputs": [
        {
          "internalType": "uint256",
          "name": "proposal",
          "type": "uint256"
        }
      ],
      "name": "vote",
      "outputs": [],
      "stateMutability": "nonpayable",
      "type": "function"
    },
    {
      "inputs": [
        {
          "internalType": "address",
          "name": "",
          "type": "address"
        }
      ],
      "name": "voters",
      "outputs": [
        {
          "internalType": "uint256",
          "name": "weight",
          "type": "uint256"
        },
        {
          "internalType": "bool",
          "name": "voted",
          "type": "bool"
        },
        {
          "internalType": "address",
          "name": "delegate",
          "type": "address"
        },
        {
          "internalType": "uint256",
          "name": "vote",
          "type": "uint256"
        },
        {
          "internalType": "uint256",
          "name": "startTime",
          "type": "uint256"
        }
      ],
      "stateMutability": "view",
      "type": "function"
    },
    {
      "inputs": [],
      "name": "winnerName",
      "outputs": [
        {
          "internalType": "bytes32",
          "name": "winnerName_",
          "type": "bytes32"
        }
      ],
      "stateMutability": "view",
      "type": "function"
    },
    {
      "inputs": [],
      "name": "winningProposal",
      "outputs": [
        {
          "internalType": "uint256",
          "name": "winningProposal_",
          "type": "uint256"
        }
      ],
      "stateMutability": "view",
      "type": "function"
    }
  ],
  "bytecode": {
    "object": "0x608060405234801561001057600080fd5b506040516109d03803806109d083398101604081905261002f916100e6565b600180546001600160a01b0319163390811782556000908152600260205260408120919091555b81518110156100c9576003604051806040016040528084848151811061007e5761007e6101a3565b602090810291909101810151825260009181018290528354600181810186559483529181902083516002909302019182559190910151910155806100c1816101b9565b915050610056565b50506101e0565b634e487b7160e01b600052604160045260246000fd5b600060208083850312156100f957600080fd5b82516001600160401b038082111561011057600080fd5b818501915085601f83011261012457600080fd5b815181811115610136576101366100d0565b8060051b604051601f19603f8301168101818110858211171561015b5761015b6100d0565b60405291825284820192508381018501918883111561017957600080fd5b938501935b828510156101975784518452938501939285019261017e565b98975050505050505050565b634e487b7160e01b600052603260045260246000fd5b6000600182016101d957634e487b7160e01b600052601160045260246000fd5b5060010190565b6107e1806101ef6000396000f3fe608060405234801561001057600080fd5b50600436106100935760003560e01c8063609ff1bd11610066578063609ff1bd1461011857806378e979251461012e5780639e7b8d6114610137578063a3ec138d1461014a578063e2ba53f0146101ca57600080fd5b80630121b93f14610098578063013cf08b146100ad5780632e4176cf146100da5780635c19a95c14610105575b600080fd5b6100ab6100a63660046106ee565b6101d2565b005b6100c06100bb3660046106ee565b6102f9565b604080519283526020830191909152015b60405180910390f35b6001546100ed906001600160a01b031681565b6040516001600160a01b0390911681526020016100d1565b6100ab610113366004610707565b610327565b610120610524565b6040519081526020016100d1565b61012060005481565b6100ab610145366004610707565b6105a1565b610194610158366004610707565b60026020819052600091825260409091208054600182015492820154600390920154909260ff8116926101009091046001600160a01b03169185565b6040805195865293151560208601526001600160a01b03909216928401929092526060830191909152608082015260a0016100d1565b6101206106bb565b61012c600054426101e3919061074d565b1061020157604051630c6e49e360e41b815260040160405180910390fd5b336000908152600260205260408120805490910361025d5760405162461bcd60e51b8152602060048201526014602482015273486173206e6f20726967687420746f20766f746560601b60448201526064015b60405180910390fd5b600181015460ff16156102a35760405162461bcd60e51b815260206004820152600e60248201526d20b63932b0b23c903b37ba32b21760911b6044820152606401610254565b6001818101805460ff1916909117905560028101829055805460038054849081106102d0576102d0610764565b906000526020600020906002020160010160008282546102f0919061077a565b90915550505050565b6003818154811061030957600080fd5b60009182526020909120600290910201805460019091015490915082565b336000908152600260205260409020600181015460ff16156103805760405162461bcd60e51b81526020600482015260126024820152712cb7ba9030b63932b0b23c903b37ba32b21760711b6044820152606401610254565b336001600160a01b038316036103d85760405162461bcd60e51b815260206004820152601e60248201527f53656c662d64656c65676174696f6e20697320646973616c6c6f7765642e00006044820152606401610254565b6001600160a01b038281166000908152600260205260409020600101546101009004161561047a576001600160a01b039182166000908152600260205260409020600101546101009004909116903382036104755760405162461bcd60e51b815260206004820152601960248201527f466f756e64206c6f6f7020696e2064656c65676174696f6e2e000000000000006044820152606401610254565b6103d8565b600181810180546001600160a81b0319166101006001600160a01b03861690810291909117831790915560009081526002602052604090209081015460ff161561050557816000015460038260020154815481106104da576104da610764565b906000526020600020906002020160010160008282546104fa919061077a565b9091555061051f9050565b81548154829060009061051990849061077a565b90915550505b505050565b600080805b60035481101561059c57816003828154811061054757610547610764565b906000526020600020906002020160010154111561058a576003818154811061057257610572610764565b90600052602060002090600202016001015491508092505b8061059481610792565b915050610529565b505090565b6001546001600160a01b0316331461060c5760405162461bcd60e51b815260206004820152602860248201527f4f6e6c79206368616972706572736f6e2063616e2067697665207269676874206044820152673a37903b37ba329760c11b6064820152608401610254565b6001600160a01b03811660009081526002602052604090206001015460ff16156106785760405162461bcd60e51b815260206004820152601860248201527f54686520766f74657220616c726561647920766f7465642e00000000000000006044820152606401610254565b6001600160a01b0381166000908152600260205260409020541561069b57600080fd5b6001600160a01b0316600090815260026020526040812060019055429055565b600060036106c7610524565b815481106106d7576106d7610764565b906000526020600020906002020160000154905090565b60006020828403121561070057600080fd5b5035919050565b60006020828403121561071957600080fd5b81356001600160a01b038116811461073057600080fd5b9392505050565b634e487b7160e01b600052601160045260246000fd5b60008282101561075f5761075f610737565b500390565b634e487b7160e01b600052603260045260246000fd5b6000821982111561078d5761078d610737565b500190565b6000600182016107a4576107a4610737565b506001019056fea2646970667358221220cd86f80f0f9a34b5a65d556540130fc2b25ed138e301621c6446b105719fb42f64736f6c634300080d0033",
    "linkReferences": {}
  }
}